:100000000C9462000C948A000C948A000C948A0070
:100010000C948A000C948A000C948A000C94BB0304
:100020000C948A000C948A000C948A000C948A0028
:100030000C948A000C948A000C948A000C948A0018
:100040000C9419030C948A000C9489030C94630398
:100050000C948A000C948A000C948A000C948A00F8
:100060000C948A000C948A00000000080002010031
:100070000003040700000000000000000000000072
:10008000240027002A000000000023002600290089
:1000900000000000250028002B00040404040404D0
:1000A0000404020202020202030303030303010227
:1000B00004081020408001020408102001020408F6
:1000C0001020E00311241FBECFEFD8E0DEBFCDBF6C
:1000D00011E0A0E0B1E0EEE8FAE002C005900D9278
:1000E000A231B107D9F721E0A2E1B1E001C01D9230
:1000F000AE3CB207E1F710E0C2E6D0E004C02197C1
:10010000FE010E943F05C136D107C9F70E944D0488
:100110000C9445050C94000090E0FC01E255FF4F63
:10012000249186569F4FFC018491882399F090E09A
:10013000880F991FFC01E458FF4FA591B491FC0171
:10014000E057FF4F859194918FB7F894EC91E22B93
:10015000EC938FBF089590E0FC01E859FF4F249184
:10016000FC01E255FF4F3491FC01E656FF4FE4914C
:10017000EE23C9F0222339F0233001F1A8F4213015
:1001800019F1223029F1F0E0EE0FFF1FE057FF4F89
:10019000A591B4918FB7F894EC91611126C0309578
:1001A0003E233C938FBF08952730A9F02830C9F033
:1001B000243049F7809180008F7D03C080918000BA
:1001C0008F7780938000DFCF84B58F7784BDDBCFBE
:1001D00084B58F7DFBCF8091B0008F778093B00086
:1001E000D2CF8091B0008F7DF9CF3E2BDACF3FB7D1
:1001F000F89480911B0190911C01A0911D01B09178
:100200001E0126B5A89B05C02F3F19F00196A11D20
:10021000B11D3FBFBA2FA92F982F8827BC01CD0150
:10022000620F711D811D911D42E0660F771F881FAF
:10023000991F4A95D1F708958F929F92AF92BF92DE
:10024000CF92DF92EF92FF920E94F7004B015C0188
:1002500084EFC82EDD24D394E12CF12C0E94F7000A
:10026000681979098A099B09683E734081059105DF
:10027000A8F321E0C21AD108E108F10888EE880E3F
:1002800083E0981EA11CB11CC114D104E104F10447
:1002900029F7FF90EF90DF90CF90BF90AF909F90A5
:1002A0008F900895AF92BF92CF92DF92EF92FF921C
:1002B0000F931F93CF93DF936C017B018B01040F8E
:1002C000151FEB015E01AE18BF08C017D10759F02A
:1002D0006991D601ED91FC910190F081E02DC6016C
:1002E0000995892B79F7C501DF91CF911F910F9166
:1002F000FF90EF90DF90CF90BF90AF900895FC01FA
:10030000538D448D252F30E0842F90E0821B930B7A
:10031000541710F0CF96089501970895FC01918D20
:10032000828D981761F0A28DAE0FBF2FB11D5D9623
:100330008C91928D9F5F9F73928F90E008958FEFC5
:100340009FEF0895FC01918D828D981731F0828D79
:10035000E80FF11D858D90E008958FEF9FEF0895D0
:10036000FC01918D228D892F90E0805C9F4F821B34
:1003700091098F73992708958FE191E00E94B00150
:1003800021E0892B09F420E0822F089580E090E09D
:10039000892B29F00E94BC0181110C940000089562
:1003A000FC01A48DA80FB92FB11DA35ABF4F2C91EA
:1003B000848D90E001968F739927848FA689B789E1
:1003C0002C93A089B1898C91837080648C93938DD8
:1003D000848D981306C00288F389E02D80818F7D7B
:1003E00080830895EF92FF920F931F93CF93DF9333
:1003F000EC0181E0888F9B8D8C8D98131AC0E88961
:10040000F989808185FF15C09FB7F894EE89FF892F
:100410006083E889F98980818370806480839FBFCD
:1004200081E090E0DF91CF911F910F91FF90EF90CD
:100430000895F62E0B8D10E00F5F1F4F0F731127DD
:10044000E02E8C8D8E110CC00FB607FCFACFE88918
:10045000F989808185FFF5CFCE010E94D001F1CFCF
:10046000EB8DEC0FFD2FF11DE35AFF4FF0829FB78C
:10047000F8940B8FEA89FB8980818062CFCFCF937C
:10048000DF93EC01888D8823B9F0AA89BB89E889BC
:10049000F9898C9185FD03C0808186FD0DC00FB662
:1004A00007FCF7CF8C9185FFF2CF808185FFEDCFE0
:1004B000CE010E94D001E9CFDF91CF9108950F9333
:1004C0001F93E091C601F091C70180819091C00116
:1004D000892B8083E091C201F091C30190818091CA
:1004E000C0018095892380838BE090E00197F1F72C
:1004F000E091C201F091C30180819091C001892BEC
:10050000808383E290E00197F1F7E091C201F091DE
:10051000C30190818091C001809589238083E091FF
:10052000C601F091C70190818091C0018095892317
:100530008083E091C401F091C50180819091C10157
:10054000892329F090E080E01F910F9108950E9487
:10055000F700AB01BC018091C8019091C901B0E0E6
:10056000A0E08855994EAF4FBF4F840F951FA61F2F
:10057000B71F8093CA019093CB01A093CC01B09395
:10058000CD01E091C401F091C50180819091C1013C
:10059000892381F40E94F7000091CA011091CB01D8
:1005A0002091CC013091CD01061717072807390794
:1005B00040F7C8CF0E94F7002091C8013091C901CF
:1005C000620F731F811D911D6093CA017093CB014F
:1005D0008093CC019093CD01E091C401F091C501CD
:1005E00080819091C101892381F00E94F7000091E0
:1005F000CA011091CB012091CC013091CD01061799
:1006000017072807390740F79DCF0E94F700209170
:10061000C8013091C901A901455051092091CA0171
:100620003091CB01FA01E21BF30BCF01860F971F2C
:100630008BCF1F920F920FB60F9211242F933F93DF
:100640008F939F93AF93BF9380911701909118015F
:10065000A0911901B0911A013091160123E0230FE6
:100660002D3758F50196A11DB11D209316018093D9
:10067000170190931801A0931901B0931A0180916A
:100680001B0190911C01A0911D01B0911E010196CA
:10069000A11DB11D80931B0190931C01A0931D010E
:1006A000B0931E01BF91AF919F918F913F912F9178
:1006B0000F900FBE0F901F90189526E8230F0296FB
:1006C000A11DB11DD2CF1F920F920FB60F92112410
:1006D0002F933F934F935F936F937F938F939F934A
:1006E000AF93BF93EF93FF938FE191E00E94D0010E
:1006F000FF91EF91BF91AF919F918F917F916F91FA
:100700005F914F913F912F910F900FBE0F901F90CF
:1007100018951F920F920FB60F9211242F938F935B
:100720009F93EF93FF93E0912F01F091300180812F
:10073000E0913501F091360182FD1BC090818091DE
:1007400038018F5F8F7320913901821741F0E0915A
:100750003801F0E0E15EFE4F958F80933801FF9104
:10076000EF919F918F912F910F900FBE0F901F903F
:1007700018958081F4CF1F920F920FB60F9211241B
:100780002F933F934F935F936F937F938F939F9399
:10079000AF93BF93EF93FF93F0E0E0E00995FF91F3
:1007A000EF91BF91AF919F918F917F916F915F91E9
:1007B0004F913F912F910F900FBE0F901F90189562
:1007C000EFE1F1E01382128288EE93E0A0E0B0E066
:1007D00084839583A683B78384E091E091838083AB
:1007E00085EC90E09587848784EC90E097878687F6
:1007F00080EC90E0918B808B81EC90E0938B828BEE
:1008000082EC90E0958B848B86EC90E0978B868BC6
:10081000118E128E138E148EE6EBF0E0E491ACEBA9
:10082000B1E01496EC931497E5EBF0E0E4911596A3
:10083000EC93159782EA90E0FC012491E22FF0E01E
:10084000EE0FFF1FE057FF4F2591349117963C9311
:100850002E931697E1EAF0E0E491F0E0EE0FFF1F2F
:10086000EA57FF4F2591349119963C932E93189790
:10087000FC018491E82FF0E0EE0FFF1FE458FF4FDA
:10088000859194911B969C938E931A9783E29DE099
:100890001D969C938E931C970895789484B58260DE
:1008A00084BD84B5816084BD85B5826085BD85B514
:1008B000816085BD80916E00816080936E00109292
:1008C000810080918100826080938100809181000D
:1008D000816080938100809180008160809380009E
:1008E0008091B10084608093B1008091B0008160FC
:1008F0008093B00080917A00846080937A00809128
:100900007A00826080937A0080917A00816080937F
:100910007A0080917A00806880937A001092C100FA
:100920008DE00E948C00E0912F01F091300182E077
:100930008083E0912B01F0912C011082E0912D0138
:10094000F0912E018FEC808310923701E0913301FA
:10095000F091340186E08083E0913101F091320121
:10096000808180618083E0913101F091320180814A
:1009700088608083E0913101F0913201808180684C
:100980008083E0913101F091320180818F7D8083FD
:1009900083E00E948C0084E00E948C0082E00E9430
:1009A0008C0085E00E948C0060E083E00E94AB0038
:1009B00060E084E00E94AB0060E082E00E94AB0057
:1009C00060E085E00E94AB00C0E0D0E00E945F02E2
:1009D0008039934008F040C060E083E00E94AB00A3
:1009E00060E084E00E94AB0060E082E00E94AB0027
:1009F00060E085E00E94AB000E941C0160E083E0A3
:100A00000E94AB0060E084E00E94AB0061E082E005
:100A10000E94AB0061E085E00E94AB000E941C01D7
:100A200061E083E00E94AB0060E084E00E94AB00E4
:100A300060E082E00E94AB0061E085E00E94AB00D4
:100A40000E941C01209711F20E94BC01882309F426
:100A5000BDCF0E940000BACF61E083E00E94AB00EE
:100A600061E084E00E94AB0060E082E00E94AB00A5
:100A700060E085E00E94AB000E945F02E3CFEE0FD2
:0E0A8000FF1F0590F491E02D0994F894FFCF2C
:100A8E0000000000F20152017F013F02B0018E0111
:020A9E00A201B3
:00000001FF
