:100000000C9462000C948A000C948A000C948A0070
:100010000C948A000C948A000C948A000C94790346
:100020000C948A000C948A000C948A000C948A0028
:100030000C948A000C948A000C948A000C948A0018
:100040000C942F030C948A000C94FD020C94D7029C
:100050000C948A000C948A000C948A000C948A00F8
:100060000C948A000C948A00000000080002010031
:100070000003040700000000000000000000000072
:10008000240027002A000000000023002600290089
:1000900000000000250028002B00040404040404D0
:1000A0000404020202020202030303030303010227
:1000B00004081020408001020408102001020408F6
:1000C00010206A0211241FBECFEFD8E0DEBFCDBFE3
:1000D00011E0A0E0B1E0E2EFFBE002C005900D927C
:1000E000A432B107D9F721E0A4E2B1E001C01D922A
:1000F000A03EB207E1F710E0C2E6D0E004C02197CD
:10010000FE010E94F105C136D107C9F70E949E0386
:100110000C94F7050C94000090E0FC01E255FF4FB1
:10012000249186569F4FFC018491882399F090E09A
:10013000880F991FFC01E458FF4FA591B491FC0171
:10014000E057FF4F859194918FB7F894EC91E22B93
:10015000EC938FBF0895AF92BF92CF92DF92EF9250
:10016000FF920F931F93CF93DF936C017B018B0161
:10017000040F151FEB015E01AE18BF08C017D107B1
:1001800059F06991D601ED91FC910190F081E02D3B
:10019000C6010995892B79F7C501DF91CF911F9190
:1001A0000F91FF90EF90DF90CF90BF90AF900895A8
:1001B000FC01538D448D252F30E0842F90E0821B6D
:1001C000930B541710F0CF96089501970895FC01F2
:1001D000918D828D981761F0A28DAE0FBF2FB11D4A
:1001E0005D968C91928D9F5F9F73928F90E00895A2
:1001F0008FEF9FEF0895FC01918D828D981731F05C
:10020000828DE80FF11D858D90E008958FEF9FEFAF
:100210000895FC01918D228D892F90E0805C9F4F85
:10022000821B91098F7399270895FC01A48DA80F53
:10023000B92FB11DA35ABF4F2C91848D90E0019628
:100240008F739927848FA689B7892C93A089B18948
:100250008C91837080648C93938D848D981306C0E9
:100260000288F389E02D80818F7D80830895EF924D
:10027000FF920F931F93CF93DF93EC0181E0888F60
:100280009B8D8C8D98131AC0E889F989808185FF30
:1002900015C09FB7F894EE89FF896083E889F989D2
:1002A00080818370806480839FBF81E090E0DF91D4
:1002B000CF911F910F91FF90EF900895F62E0B8D27
:1002C00010E00F5F1F4F0F731127E02E8C8D8E11E2
:1002D0000CC00FB607FCFACFE889F989808185FF49
:1002E000F5CFCE010E941501F1CFEB8DEC0FFD2F64
:1002F000F11DE35AFF4FF0829FB7F8940B8FEA8904
:10030000FB8980818062CFCFCF93DF93EC01888D12
:100310008823B9F0AA89BB89E889F9898C9185FD80
:1003200003C0808186FD0DC00FB607FCF7CF8C910E
:1003300085FFF2CF808185FFEDCFCE010E941501B0
:10034000E9CFDF91CF91089590E0FC01E859FF4F8C
:100350002491FC01E255FF4F3491FC01E656FF4F1A
:10036000E491EE23C9F0222339F0233001F1A8F4FF
:10037000213019F1223029F1F0E0EE0FFF1FE05794
:10038000FF4FA591B4918FB7F894EC91611126C0FD
:1003900030953E233C938FBF08952730A9F0283035
:1003A000C9F0243049F7809180008F7D03C080918F
:1003B00080008F7780938000DFCF84B58F7784BDF6
:1003C000DBCF84B58F7DFBCF8091B0008F7780939A
:1003D000B000D2CF8091B0008F7DF9CF3E2BDACF25
:1003E0003FB7F89480912D0190912E01A0912F019B
:1003F000B091300126B5A89B05C02F3F19F001969A
:10040000A11DB11D3FBFBA2FA92F982F8827BC016E
:10041000CD01620F711D811D911D42E0660F771F96
:10042000881F991F4A95D1F708958F929F92AF9296
:10043000BF92CF92DF92EF92FF924B015C010E943C
:10044000F0016B017C010E94F0016C197D098E099D
:100450009F09683E734081059105A8F321E0821A47
:100460009108A108B10888EEC80E83E0D81EE11CEF
:10047000F11C81149104A104B10429F7FF90EF90BD
:10048000DF90CF90BF90AF909F908F90089560E0E5
:1004900082E00E94A40160E083E00E94A40160E089
:1004A00085E00E94A40160E084E00E94A40168EE5F
:1004B00073E080E090E00C941502FC0101900020B4
:1004C000E9F73197AF01481B590BBC0181E391E07B
:1004D0000C94AB00E1E3F1E01382128288EE93E02A
:1004E000A0E0B0E084839583A683B78385E191E0A3
:1004F0009183808385EC90E09587848784EC90E0FD
:100500009787868780EC90E0918B808B81EC90E0E0
:10051000938B828B82EC90E0958B848B86EC90E0C1
:10052000978B868B118E128E138E148EE6EBF0E075
:10053000E491AEECB1E01496EC931497E5EBF0E0A7
:10054000E4911596EC93159782EA90E0FC012491D2
:10055000E22FF0E0EE0FFF1FE057FF4F259134919F
:1005600017963C932E931697E1EAF0E0E491F0E0C1
:10057000EE0FFF1FEA57FF4F2591349119963C93D8
:100580002E931897FC018491E82FF0E0EE0FFF1FE7
:10059000E458FF4F859194911B969C938E931A97E4
:1005A00089E499E51D969C938E931C9708951F925C
:1005B0000F920FB60F9211242F933F934F935F9397
:1005C0006F937F938F939F93AF93BF93EF93FF931B
:1005D00081E391E00E941501FF91EF91BF91AF91EE
:1005E0009F918F917F916F915F914F913F912F914B
:1005F0000F900FBE0F901F9018951F920F920FB67D
:100600000F9211242F938F939F93EF93FF93E09179
:100610004101F09142018081E0914701F091480150
:1006200082FD1BC0908180914A018F5F8F73209162
:100630004B01821741F0E0914A01F0E0EF5CFE4F80
:10064000958F80934A01FF91EF919F918F912F9108
:100650000F900FBE0F901F9018958081F4CF1F92BE
:100660000F920FB60F9211242F933F938F939F9366
:10067000AF93BF938091290190912A01A0912B0102
:10068000B0912C013091280123E0230F2D3758F52C
:100690000196A11DB11D20932801809329019093FB
:1006A0002A01A0932B01B0932C0180912D019091F0
:1006B0002E01A0912F01B09130010196A11DB11D15
:1006C00080932D0190932E01A0932F01B0933001C0
:1006D000BF91AF919F918F913F912F910F900FBE3E
:1006E0000F901F90189526E8230F0296A11DB11DAB
:1006F000D2CF1F920F920FB60F9211242F933F93D8
:100700004F935F936F937F938F939F93AF93BF9319
:10071000EF93FF93F0E0E0E00995FF91EF91BF9137
:10072000AF919F918F917F916F915F914F913F9189
:100730002F910F900FBE0F901F9018958F929F9240
:10074000AF92BF92CF92DF92EF92FF920F931F93DF
:10075000CF93DF93CDB7DEB7A1970FB6F894DEBF86
:100760000FBECDBF8DE00E948C0082E00E948C0005
:1007700083E00E948C0084E00E948C0085E00E944F
:100780008C00E0914101F091420182E08083E09190
:100790003D01F0913E011082E0913F01F091400156
:1007A00080E1808310924901E0914501F09146017A
:1007B00086E08083E0914301F09144018081806173
:1007C0008083E0914301F0914401808188608083BF
:1007D000E0914301F0914401808180688083E09141
:1007E0004301F091440180818F7D8083E091D801A5
:1007F000F091D90180819091D201892B8083E09181
:10080000D401F091D50190818091D2018095892306
:1008100080838BE090E00197F1F7E091D401F091B3
:10082000D50180819091D201892B808383E290E071
:100830000197F1F7E091D401F091D5019081809179
:10084000D201809589238083E091D801F091D9016C
:1008500090818091D201809589238083E091D60197
:10086000F091D70180819091D301892309F488C048
:1008700090E080E0BC0190E080E029E330E040E0DF
:1008800050E00E94C00569017A0184E091E00E9475
:100890005D0219A2A70196018E010F5D1F4F8AE02C
:1008A000882E912CA12CB12CCA01B901A50194016B
:1008B0000E94C005605DF80162938F01211531052A
:1008C0004105510589F7309719F0CF010E945D026B
:1008D0008BE091E00E945D028EE091E00E945D025B
:1008E000F1E0CF1AD10883E1C816D104A0F561E088
:1008F0008DE00E94A4010E94470260E082E00E9415
:10090000A40161E083E00E94A40160E085E00E9410
:10091000A40161E084E00E94A40168EE73E080E03D
:1009200090E00E9415020E94470260E082E00E946F
:10093000A40160E083E00E94A40161E085E00E94E0
:10094000A40160E084E00E94A40164EF71E080E013
:1009500090E00E94150290E080E0A1960FB6F89416
:10096000DEBF0FBECDBFDF91CF911F910F91FF90E2
:10097000EF90DF90CF90BF90AF909F908F900895B1
:100980000E94F001AB01BC018091DA019091DB0182
:10099000B0E0A0E08855994EAF4FBF4F840F951F30
:1009A000A61FB71F8093DC019093DD01A093DE01A9
:1009B000B093DF01E091D601F091D7018081909151
:1009C000D301892381F40E94F0010091DC01109190
:1009D000DD012091DE013091DF010617170728079E
:1009E000390740F745CF0E94F0012091DA0130919C
:1009F000DB01620F731F811D911D6093DC017093F9
:100A0000DD018093DE019093DF01E091D601F0914A
:100A1000D70180819091D301892381F00E94F00158
:100A20000091DC011091DD012091DE013091DF01A8
:100A3000061717072807390740F71ACF0E94F00159
:100A40002091DA013091DB01A90145505109209133
:100A5000DC013091DD01FA01E21BF30BCF01860FBF
:100A6000971F08CF8F929F92AF92BF92CF92DF9243
:100A7000EF92FF92CF93DF93EC01688179818A81B5
:100A80009B81611571058105910521F464E279ED81
:100A90008BE597E02DE133EF41E050E00E948E05B9
:100AA00049015A019B01AC01A7EAB1E40E94AD05DE
:100AB0006B017C01ACEEB4EFA50194010E94BB0573
:100AC000DC01CB018C0D9D1DAE1DBF1DB7FF03C00A
:100AD0000197A109B04888839983AA83BB839F7734
:100AE000DF91CF91FF90EF90DF90CF90BF90AF90CC
:100AF0009F908F9008950E943205089580E091E0C4
:100B00000E9432050895B0E0A0E080930001909328
:100B10000101A0930201B09303010895052E97FBF4
:100B20001EF400940E94A50557FD07D00E94C00541
:100B300007FC03D04EF40C94A505509540953095D4
:100B400021953F4F4F4F5F4F089590958095709539
:100B500061957F4F8F4F9F4F08950E94E205A59F9B
:100B6000900DB49F900DA49F800D911D11240895A8
:100B7000B7FF0C94AD050E94AD05821B930B089541
:100B8000A1E21A2EAA1BBB1BFD010DC0AA1FBB1F91
:100B9000EE1FFF1FA217B307E407F50720F0A21B03
:100BA000B30BE40BF50B661F771F881F991F1A9470
:100BB00069F760957095809590959B01AC01BD019A
:100BC000CF010895A29FB001B39FC001A39F700DF4
:100BD000811D1124911DB29F700D811D1124911D45
:100BE0000895EE0FFF1F0590F491E02D0994F894FD
:020BF000FFCF35
:100BF2000100000050696E673A2000636D000D0A23
:100C020000000000003701AB00D80084010901E7B1
:040C120000FB0000E3
:00000001FF
