:10000000CF93DF93CDB7DEB76C970FB6F894DEBF12
:100010000FBECDBF84E290E024E230E0F901208100
:100020002062FC01208385E290E025E230E0F901C6
:1000300020812062FC01208380E090E8ABE3B5E4FE
:1000400089839A83AB83BC8320E030E04AE753E4A2
:1000500069817A818B819C810E949001DC01CB01B6
:100060008D839E83AF83B88720E030E040E85FE374
:100070006D817E818F8198850E940A0188232CF4EE
:1000800081E090E09A8789873FC020E03FEF4FE70B
:1000900057E46D817E818F8198850E948B011816AF
:1000A0004CF520E030E040E251E469817A818B81B7
:1000B0009C810E949001DC01CB01BC01CD010E941A
:1000C0000F01DC01CB019A8789870FC089E190E09D
:1000D0009C878B878B859C850197F1F79C878B8705
:1000E00089859A8501979A87898789859A85892B39
:1000F00069F714C06D817E818F8198850E940F0100
:10010000DC01CB019A87898789859A859E878D87AF
:100110008D859E850197F1F79E878D8785E290E01A
:1001200025E230E0F90120812F7DFC01208380E071
:1001300090E8ABE3B5E48F87988BA98BBA8B20E06E
:1001400030E04AE753E46F85788989899A890E946B
:100150009001DC01CB018B8B9C8BAD8BBE8B20E0A7
:1001600030E040E85FE36B897C898D899E890E943D
:100170000A0188232CF481E090E0988F8F8B3FC098
:1001800020E03FEF4FE757E46B897C898D899E899A
:100190000E948B0118164CF520E030E040E251E45B
:1001A0006F85788989899A890E949001DC01CB0149
:1001B000BC01CD010E940F01DC01CB01988F8F8B18
:1001C0000FC089E190E09A8F898F898D9A8D019770
:1001D000F1F79A8F898F8F89988D0197988F8F8BE0
:1001E0008F89988D892B69F714C06B897C898D89DB
:1001F0009E890E940F01DC01CB01988F8F8B8F8924
:10020000988D9C8F8B8F8B8D9C8D0197F1F79C8F98
:100210008B8F09CF0E943E0108F481E008950E946F
:100220006A0188F09F5798F0B92F9927B751B0F01D
:10023000E1F0660F771F881F991F1AF0BA95C9F76A
:1002400014C0B13091F00E948401B1E008950C9483
:100250008401672F782F8827B85F39F0B93FCCF336
:10026000869577956795B395D9F73EF490958095E7
:10027000709561957F4F8F4F9F4F0895990F00089C
:10028000550FAA0BE0E8FEEF16161706E807F90768
:10029000C0F012161306E407F50798F0621B730B03
:1002A000840B950B39F40A2661F0232B242B252B84
:1002B00021F408950A2609F4A140A6958FEF811D27
:1002C000811D089557FD9058440F551F59F05F3F09
:1002D00071F04795880F97FB991F61F09F3F79F068
:1002E00087950895121613061406551FF2CF4695EA
:1002F000F1DF08C0161617061806991FF1CF86956C
:100300007105610508940895E894BB27662777274F
:10031000CB0197F908950E943E0108F48FEF0895EC
:100320000E94A3010C9414020E94060238F00E945D
:100330000D0220F0952311F00C94FD010C940302A2
:1003400011240C9485010E94620170F3959FC1F302
:10035000950F50E0551F629FF001729FBB27F00D73
:10036000B11D639FAA27F00DB11DAA1F649F6627C8
:10037000B00DA11D661F829F2227B00DA11D621F17
:10038000739FB00DA11D621F839FA00D611D221FD1
:10039000749F3327A00D611D231F849F600D211DB5
:1003A000822F762F6A2F11249F5750409AF0F1F038
:1003B00088234AF0EE0FFF1FBB1F661F771F881FA1
:1003C00091505040A9F79E3F510580F00C94FD01DB
:1003D0000C9485015F3FE4F3983ED4F386957795BE
:1003E0006795B795F795E7959F5FC1F7FE2B880F47
:1003F000911D9695879597F9089597F99F6780E8DD
:1004000070E060E008959FEF80EC089500240A9466
:100410001616170618060906089500240A941216DF
:100420001306140605060895092E0394000C11F412
:10043000882352F0BB0F40F4BF2B11F460FF04C0BF
:0A0440006F5F7F4F8F4F9F4F0895AD
:00000001FF
