:020000040000FA
:100000000C9462000C947F000C947F000C947F0091
:100010000C947F000C947F000C947F000C94DB0107
:100020000C947F000C947F000C947F000C947F0054
:100030000C947F000C947F000C947F000C947F0044
:100040000C9491010C947F000C947F000C947F0021
:100050000C947F000C947F000C947F000C947F0024
:100060000C947F000C947F00000000002300260009
:10007000290000000008000201000003040700003E
:1000800000000000000000000000250028002B00F8
:1000900000000000240027002A00040404040404D3
:1000A0000404020202020202030303030303010227
:1000B00004081020408001020408102001020408F6
:1000C0001020770211241FBECFEFD8E0DEBFCDBFD6
:1000D00021E0A0E0B1E001C01D92AF31B207E1F72D
:1000E00010E0C2E6D0E004C02197FE010E94B802F1
:1000F000C136D107C9F70E9400020C94BE020C94CD
:10010000000090E0FC01E255FF4F249186569F4F7E
:10011000FC018491882399F090E0880F991FFC01DD
:10012000E057FF4FA591B491FC01EA57FF4F85912D
:1001300094918FB7F894EC91E22BEC938FBF0895D4
:100140000F931F939FB7F89440911B0150911C018E
:1001500060911D0170911E0186B5A89B06C08F3F5E
:1001600021F04F5F5F4F6F4F7F4F9FBF762F652FFF
:10017000542F4427480F511D611D711D440F551FF9
:10018000661F771F440F551F661F771F08EE13E089
:1001900020E030E0FFB7F89480911B0190911C01A2
:1001A000A0911D01B0911E01E6B5A89B05C0EF3FCF
:1001B00019F00196A11DB11DFFBFBA2FA92F982FCD
:1001C00088278E0F911DA11DB11D880F991FAA1F91
:1001D000BB1F880F991FAA1FBB1F841B950BA60B63
:1001E000B70B883E9340A105B105A0F2015011095B
:1001F0002109310948515C4F6F4F7F4F011511059F
:100200002105310539F61F910F91089590E0FC0109
:10021000EE58FF4F2491FC01E255FF4F3491865672
:100220009F4FFC018491882391F0211116C0E82F83
:10023000F0E0EE0FFF1FEA57FF4FA591B4918FB783
:10024000F894662329F0EC91E32BEC938FBF08958B
:100250009C91E32FE095E923F8CF233019F160F06A
:100260002730E1F02830A1F0243009F79091800088
:100270009F7D90938000DBCF213031F02230B9F6A2
:1002800094B59F7D94BDD3CF94B59F7794BDCFCFC8
:100290009091B0009F7D9093B000C9CF9091B00035
:1002A0009F77F9CF909180009F77E3CF789484B5C2
:1002B000826084BD84B5816084BD85B5826085BD62
:1002C00085B5816085BDEEE6F0E080818160808348
:1002D000E1E8F0E01082808182608083808181602B
:1002E0008083E0E8F0E0808181608083E1EBF0E0F2
:1002F000808184608083E0EBF0E080818160808396
:10030000EAE7F0E08081846080838081826080837E
:100310008081816080838081806880831092C100A9
:1003200008951F920F920FB60F9211242F933F93AF
:100330008F939F93AF93BF93809117019091180172
:10034000A0911901B0911A013091160123E0230FF9
:100350002D3768F126E8230F0296A11DB11D2093C9
:1003600016018093170190931801A0931901B0937F
:100370001A0180911B0190911C01A0911D01B09167
:100380001E010196A11DB11D80931B0190931C01BC
:10039000A0931D01B0931E01BF91AF919F918F91CA
:1003A0003F912F910F900FBE0F901F9018950196BF
:1003B000A11DB11DD4CF1F920F920FB60F92112421
:1003C0002F933F934F935F936F937F938F939F935D
:1003D000AF93BF93EF93FF93F0E0E0E00995FF91B7
:1003E000EF91BF91AF919F918F917F916F915F91AD
:1003F0004F913F912F910F900FBE0F901F90189526
:100400000E94560184E00E94810083E00E948100E6
:1004100088E00E94810087E00E94810085E00E94C0
:10042000810084E00E94810060E088E00E94060173
:1004300060E087E00E94060160E085E00E9406011E
:1004400060E084E00E940601C2EBD0E00EE910E01B
:1004500051EBE52E50E0F52E6DE9C62E60E0D62E6C
:1004600070E0A72E70E0B72EFE012491F801849170
:10047000882399F090E0880F991FFC01E057FF4F07
:10048000A591B491FC01EA57FF4F859194918FB7E4
:10049000F8949C91292B2C938FBF61E084E00E94FB
:1004A0000601F7012491F6018491882399F090E0E8
:1004B000880F991FFC01E057FF4FA591B491FC01F3
:1004C000EA57FF4F859194918FB7F8949C91292B0F
:1004D0002C938FBF61E083E00E9406010E94A00080
:1004E000A114B10409F4C0CF0E940000BDCFE6EB17
:1004F000F0E0E491A4E0B1E01496EC931497E5EBFE
:10050000F0E0E4911596EC93159782EA90E0FC01F7
:100510002491E22FF0E0EE0FFF1FEA57FF4F2591E5
:10052000349117963C932E931697E1EAF0E0E4910C
:10053000F0E0EE0FFF1FE859FF4F25913491199617
:100540003C932E931897FC018491E82FF0E0EE0F76
:10055000FF1FE057FF4F859194911B969C938E93BC
:100560001A9781E299E01D969C938E931C970895AB
:10057000EE0FFF1F0590F491E02D0994F894FFCF42
:107E0000112484B714BE81FFF0D085E080938100F7
:107E100082E08093C00088E18093C10086E0809377
:107E2000C20080E18093C4008EE0C9D0259A86E02C
:107E300020E33CEF91E0309385002093840096BBD3
:107E4000B09BFECF1D9AA8958150A9F7CC24DD24C4
:107E500088248394B5E0AB2EA1E19A2EF3E0BF2EE7
:107E6000A2D0813461F49FD0082FAFD0023811F036
:107E7000013811F484E001C083E08DD089C08234E0
:107E800011F484E103C0853419F485E0A6D080C0E4
:107E9000853579F488D0E82EFF2485D0082F10E0AE
:107EA000102F00270E291F29000F111F8ED06801E7
:107EB0006FC0863521F484E090D080E0DECF843638
:107EC00009F040C070D06FD0082F6DD080E0C81688
:107ED00080E7D80618F4F601B7BEE895C0E0D1E017
:107EE00062D089930C17E1F7F0E0CF16F0E7DF06D8
:107EF00018F0F601B7BEE89568D007B600FCFDCFD4
:107F0000A601A0E0B1E02C9130E011968C91119780
:107F100090E0982F8827822B932B1296FA010C0160
:107F200087BEE89511244E5F5F4FF1E0A038BF0790
:107F300051F7F601A7BEE89507B600FCFDCF97BE46
:107F4000E89526C08437B1F42ED02DD0F82E2BD052
:107F50003CD0F601EF2C8F010F5F1F4F84911BD097
:107F6000EA94F801C1F70894C11CD11CFA94CF0C13
:107F7000D11C0EC0853739F428D08EE10CD085E9AC
:107F80000AD08FE07ACF813511F488E018D01DD067
:107F900080E101D065CF982F8091C00085FFFCCF94
:107FA0009093C60008958091C00087FFFCCF809118
:107FB000C00084FD01C0A8958091C6000895E0E648
:107FC000F0E098E1908380830895EDDF803219F02E
:107FD00088E0F5DFFFCF84E1DECF1F93182FE3DFCA
:107FE0001150E9F7F2DF1F91089580E0E8DFEE27F6
:047FF000FF270994CA
:027FFE00040479
:00000001FF
